:020000040800F2
:10000000F0B10020850200082F3900080F330008E6
:100010002D390008A10F0008494C0008000000001D
:10002000000000000000000000000000A501000822
:10003000351000080000000001020008A743000876
:100040009F0200089F0200089F0200089F0200080C
:100050009F0200089F0200089F0200089F020008FC
:100060009F0200089F0200089F0200089F020008EC
:100070009F020008111000089F0200089F0200085C
:100080001D100008291000089F0200089F020008A8
:100090009F0200089F0200089F0200089F020008BC
:1000A0009F020008314400089F0200089F020008D8
:1000B0009F02000800000000000000009F020008EE
:1000C0009F0200089F0200089F0200089F0200088C
:1000D0009F0200089F0200083D4C00089F02000894
:1000E0009F0200089F0200080000000000000000BE
:1000F0000000000000000000000000000000000000
:10010000000000009F020008000000009F0200089D
:1001100000000000000000009F0200084D4400089D
:100120009F0200089F0200089F0200089F0200082B
:100130009F02000800000000000000000000000016
:100140009F0200089F0200089F02000800000000B4
:100150009F0200089F0200089F0200089F020008FB
:100160009F0200089F0200089F0200080000000094
:100170009F0200089F02000800000000000000002D
:100180009F0200089F0200089F020008DFF810D0BD
:1001900000F0B8FC0048004711620208AFF300808D
:1001A000F0B100202C4B1968086800F05AB880F3B1
:1001B0000988BFF36F8F4FF0000080F311887047FC
:1001C0000000000008480068006880F308884FF0CD
:1001D000000080F3148862B661B6BFF34F8FBFF39F
:1001E0006F8F00DF00BF00BF08ED00E0DFF80C00FC
:1001F000016841F470010160704700BF88ED00E0C4
:10020000EFF30980BFF36F8F134B1A681EF0100FC6
:1002100008BF20ED108A20E9F04F106009B44FF0BC
:10022000500080F31188BFF34F8FBFF36F8F30F012
:100230004FFD4FF0000080F3118809BC1968086871
:1002400000F014B81EF0100F08BF00F014B880F3CF
:100250000988BFF36F8F70470C010010EFF3058022
:10026000704730C8B0E8C04FFFF7A1BF30C8B0E852
:10027000C04FFFF7E7BFB0EC088AB0EC08CAFFF741
:10028000E6BF00000648804706480047FEE7FEE755
:10029000FEE7FEE7FEE7FEE7FEE7FEE7FEE7FEE736
:1002A000214400088D0100082DE9F05F054600207B
:1002B00092469B4688460646814640241BE02846D7
:1002C00041464746224600F034FA53465A46C01A81
:1002D000914110D311461846224600F01BFA2D1A00
:1002E00067EB01084F4622460120002100F012FA78
:1002F00017EB00094E41201EA4F10104DFDC484643
:1003000031462A46434600F000B830BCBDE8C09FE5
:100310002DE9F0410024061B254671F1000605DA9F
:1003200001240027D0EB070067EB0101161E73F1D3
:10033000000605DA0027D2EB0702012567EB03036D
:10034000FFF7B2FF86460E4617469C46AC4204D0E5
:100350000025D0EB050E65EB010624B10020D2EBA1
:10036000000760EB030C704631463A466346BDE831
:10037000F08140EA01039B0703D009E008C9121F7E
:1003800008C0042AFAD203E011F8013B00F8013B4F
:10039000521EF9D27047D2B201E000F8012B491E7B
:1003A000FBD270470022F6E710B513460A46044612
:1003B0001946FFF7F0FF204610BD421C10F8011B44
:1003C0000029FBD1801A704710B5002200E0521CB2
:1003D000835C8C5CA34201D1002BF8D1D8B2E1B28E
:1003E000401A10BD034611F8012B00F8012B002A1A
:1003F000F9D1184670472DE9FE4F804681EA030087
:10040000C00F0C46009021F0004123F00045B8EBEE
:100410000200A94105D24046214690461C460B46A3
:10042000024623F00040104347D0270DC7F30A00CF
:10043000C3F30A510290401A019040286BDAC3F3CB
:10044000130040F4801B0098924620B10023D2EBA9
:10045000030A63EB0B0B01985946C0F1400250466A
:1004600000F058F906460D4650465946019A00F0EC
:1004700070F910EB08006141002487EA115284EA08
:10048000E7731A4340D0009A62B3019A012A4FEAF7
:10049000075215DC001B61EB02014FF0004202EA3B
:1004A0000752CDE90042001C41F5801132462B462F
:1004B00000F014FA03B000F045B840462146F9E7D1
:1004C000001B61EB0201001C41F5801300185B4129
:1004D0002018A2F5001747EB030140EAD570B619C2
:1004E0006D4111E06D084FEA360645EAC0754FEAE6
:1004F0000752001B61EB0201001C41F58011490805
:100500004FEA30000019514132462B4603B000F04B
:100510001CB800F0D4B90098012240000023D0EBB1
:10052000020263EBE073009821464FEAE074B8EBF7
:10053000000061EB0401E9E783F000435BE781F031
:10054000004158E730BCBDE8C08F30BCBDE8C04FAB
:10055000FFF7DFBF2DE9FE4F81EA030404F00044FA
:1005600021F0004100944FF0000B23F0004350EACB
:1005700001045ED052EA03045BD0C3F30A54C1F312
:100580000A552C44A4F2F3340194A0FB0254C1F3A5
:10059000130141F48011C3F3130343F4801301FBEF
:1005A000024400FB034E840A970A44EA815447EA56
:1005B0008357A4FB076802958D0A05FB07854FEA60
:1005C000932C04FB0C542705029D4FEA065847EA7A
:1005D0001637B5EB08056EEB070C870E920E47EA4F
:1005E000811742EA8312A7FB0201B6EB0B0164EB11
:1005F00000042B0D43EA0C335E1844EB1C50DA4622
:100600005146E7FB0201C5F313044FEA0B3343EAFB
:1006100014534FEA0432019C43EA0603A4F10C048C
:100620000294009CCDE900B400F058F903B000F04A
:1006300003B800200146F9E730BCBDE8C08F0EB515
:1006400040F2334102910021CDE900110A460B46E8
:1006500000F044F903B000BDC1F30A5210B5C1F374
:10066000130140F2FF3341F480119A4201DA002075
:1006700010BD40F233439A42A2F2334203DC5242AD
:1006800000F057F810BD904010BD00F0004230F06F
:1006900000400AD0C10D01F56071C0F3160042EAB6
:1006A0000151C208400711437047002001467047BE
:1006B00001F0004330B421F0004150EA010206D0BD
:1006C0000A0DA2F56072C1F31301002A02DC30BCEE
:1006D00000207047440F44EAC104C100E01830BC58
:1006E00000EBC25000F096B830B50B460146002032
:1006F0002022012409E021FA02F59D4205D303FAE4
:1007000002F5491B04FA02F52844151EA2F1010264
:10071000F1DC30BD202A04DB203A00FA02F100208F
:1007200070479140C2F1200320FA03F3194390402F
:100730007047202A04DB203A21FA02F0002170479A
:1007400021FA02F3D040C2F1200291400843194639
:100750007047202A06DBCB17203A41FA02F043EA21
:10076000E07306E041FA02F3D040C2F1200291406A
:1007700008431946704700000FB4002300B589B044
:100780000CA900910B996FF00042CB601E4B0693B1
:100790001E4B07930423CDE901321D4A08920246FD
:1007A0006B46002000F05AFA09B05DF814FB70B5F2
:1007B00086B006464FF0FF300091CDE901010020E0
:1007C00015460C4604903246694604A8FFF7D4FF4C
:1007D00002460498211825B108B1084600E02046D9
:1007E0002860049800280DD0002A02DD0098884275
:1007F00008D0081B0094CDE901043246694604A8DC
:10080000FFF7BAFF06B070BD9B0E0008B90E0008D6
:10081000290B00080029A8BF7047401C490008BFE9
:1008200020F00100704710B4B0FA80FC00FA0CF020
:1008300050EA010404BF10BC704749B1CCF1200458
:1008400021FA04F411FA0CF118BF012121430843E5
:10085000A3EB0C01CB1D4FEA00614FEA102042BF11
:10086000002010BC704700EBC35010440029A4BF07
:1008700010BC7047401C490008BF20F0010010BCAC
:10088000704710B541000CD0C0F3C751962908DC61
:100890007E2909DC06DB410204D000F0004040F074
:1008A0007E5010BD002010BDC1F19604C4F120019E
:1008B00000FA01F1E040FFF7ADFFA04010BD10B518
:1008C000141E73F1000408DA401C41F10001921873
:1008D0005B411A4301D120F0010010BD2DE9F04D1C
:1008E00092469B4611B1B1FA81F202E0B0FA80F271
:1008F00020329046FFF70EFF04460F4640EA0A00FA
:1009000041EA0B0153465A46084313D0114653EAB5
:10091000010019D0C8F140025046FFF70AFF054612
:100920000E46504659464246FFF7F4FE084305D0AE
:10093000012004E020463946BDE8F08D0020054343
:1009400046EAE0762C4337430A986305E40AA0EBB5
:1009500008000022FD0A44EA47540A3002D500206C
:100960000146E9E7010510196941DDE9084500196B
:100970006941BDE8F04DA2E72DE9F04D81EA03049D
:1009800004F0004B21F0004514464FF0000A23F01C
:10099000004150EA050220D054EA01021DD0C5F3FF
:1009A0000A570246C5F31303C1F31300C1F30A56F5
:1009B00040F4801543F48013A7EB0608101BD646BD
:1009C00008F2FD3873EB050002D308F1010801E0DD
:1009D00092185B41B8F1000F03DA00200146BDE830
:1009E000F08D00204FF48011064684460EE0171B60
:1009F00073EB050705D3121B63EB050306434CEAB3
:100A0000010C49084FEA300092185B4150EA010797
:100A1000EDD152EA030012D082EA040083EA050114
:100A2000084305D0101BAB4106D20122002306E08B
:100A300000224FF0004302E06FF0010253101AEB66
:100A400006004CEB085110EB0A0041EB0B01BDE82E
:100A5000F04DFFF734BFC1F30A52C1F3130140F266
:100A6000FF3341F480119A4202DA002001467047B8
:100A700040F233439A42A2F2334202DC5242FFF781
:100A800058BEFFF747BE10B500F0004420F000400C
:100A9000C20DC0F3160040F400007F2A07DA7D2A59
:100AA00000DA7D22763A00FA02F1002008E0962A68
:100AB00009DCA2F1760100FA01F1C2F19602D04000
:100AC000FFF7A8FE01E0963A9040002C00D040428B
:100AD00010BD000030B5041E71F1000404DB4FF0BE
:100AE0000044404264EB0101141E73F1000405DB75
:100AF0001C464FF00043524263EB0403994208BF87
:100B0000904230BD064C074D06E0E06840F001031E
:100B100094E8070098471034AC42F6D3FFF73AFB4D
:100B200058B9030898B90308C0B24FF4F05100F067
:100B3000D5B900002DE9FF4F087883B09946FF280A
:100B400005D0491C2D2804D00024002008E00020F6
:100B50000BE00124F9E700EB800003EB4000491CA7
:100B60000B78FF2BF7D104B1404200230293147895
:100B700019461D462D2C01D02B2C04D1521C2D2C96
:100B800013D000240294AA461478FF2C0FD00A2513
:100B9000A3FB057801FB05814FF0000C03FB0C1152
:100BA000521CE3194AEB0101EEE70124EAE7814414
:100BB00053EA010002D019F5C87F06DA0398002134
:100BC000C0E9001107B000F065B90025AE4E2F4610
:100BD000DFF8B882184600F095F9CDE90001B9F1C7
:100BE000000002DAC9F1000400E004460023A74A2D
:100BF0001AEB030B42EB045A12E0E00707D02A4637
:100C0000334638464146FFF7A5FC074688462A4644
:100C1000334610461946FFF79DFC05460E46641004
:100C2000002CEAD1DDE90001B9F1000F5A46534624
:100C300006DAFFF7A1FE3A464346FFF79DFE05E0C0
:100C4000FFF788FC3A464346FFF784FC029A0AB154
:100C500081F00041039AC2E90001B3E72DE9FF4F9B
:100C60001F468DB0D7E901464FF0FF382E2045468C
:100C70004FF000090B90B9696D1C0E988847396ACE
:100C8000824688470028F6D1BAF1FF3F0AD024F403
:100C9000D064002E11DDBAF12B0F08D0BAF12D0F60
:100CA0000BD102E0404611B08DE744F48064B9698D
:100CB0006D1C0E9888478246761E6946600501D5F0
:100CC0002D2000E02B208DF8000001F1010B0DF12B
:100CD000200809E0B9696D1C0E98884782460F9874
:100CE00044F40074761E0560002E02DDBAF1300F68
:100CF000F0D00B998A453ED144F0800406E00F996C
:100D0000681CA9F1010944F400740860B9696D1CFC
:100D1000761E0E98884782463028F0D02BE00B993B
:100D20008A4505D1200603D444F08004761E18E0DD
:100D3000504604F021FA08B30DF11301761E44F475
:100D400000748B4508D2AAF130000BF8010B200685
:100D500007D5A9F1010003E0200602D409F1010042
:100D60008146A00502D50F99681C0860B9696D1C01
:100D70000E9888478246002ED1DC53E0002E51DDCC
:100D8000BAF1650F02D0BAF1450F4BD1A00549D594
:100D9000B9696D1C24F44074761E0E98884782460B
:100DA000002E0CDD2B2804D0BAF12D0F07D144F40E
:100DB0008074B9696D1C0E9888478246761EE005DE
:100DC00001D52D2100E02B2108F8011BCDF82C8046
:100DD00021E00DF12901761E44F4007488450CD2FF
:100DE000AAF1300010F0FF0088F8000002D10B9942
:100DF000884509D908F1010806E0E00501D5244835
:100E000001E042F20F708146B9696D1C0E98884767
:100E100082460F980560002E04DD504604F0ACF9C0
:100E20000028D6D1F9690E988847FF208BF800007A
:100E300088F800000020069007904B466A4608A9F3
:100E400006A8FFF777FEA00502D46FF001002AE79D
:100E500014F0240F0AD0E00714D1DDE90612386837
:100E6000031D3B600068C0E900120BE0DDE90601EC
:100E7000FFF71EFC0146E00704D13868021D3A6006
:100E80000068016028460EE7000014400000F03FB3
:100E9000F1D8FFFF30BCBDE8C08F426842B10168A5
:100EA00011F8013B23B1521EC0E9001218467047E9
:100EB0000121C160881E704742685AB1C368016849
:100EC00043B983688B4205D0491E521CC0E9001209
:100ED000002070474FF0FF30704700007F2801D995
:100EE000002208E0064A02EB5002C007127800D147
:100EF000120902F00F0201209040084070470000E4
:100F000004B403080EB540F2334202920022CDE948
:100F100000221346FFF7E2FC03B000BD70B58C1849
:100F200010F8015B15F0070301D110F8013B2A11FD
:100F300006D110F8012B03E010F8016B01F8016BEA
:100F40005B1EF9D12B0705D40023521E0DD401F8E6
:100F5000013BFAE710F8013BCB1A921C03E013F8AF
:100F6000015B01F8015B521EF9D5A142D8D30020E4
:100F700070BD0000002810D0084A92ED000AD2EDA2
:100F8000010A92ED021AD2ED031A92ED042A516978
:100F9000926980EC050AC0E9051270477C010010D7
:100FA000FEE7000070B5184CFF2821D00D25174B27
:100FB000002200BF13F82260864215D100200229CA
:100FC00004D0032906D004290BD107E003EB8200EB
:100FD000C07806E003EB8200407802E003EB820079
:100FE00080780521617070BD521CD2B2AA42E1D353
:100FF00000F04EF8617819B1491E6170002070BD93
:101000000028FBD070BD000000020010D0B3030820
:10101000014800F0DCB8000080020010014800F038
:10102000D6B80000AC020020014800F0D0B80000A3
:10103000F40200207047000010B5002003F010F803
:101040003D20612140F201128E2303F0D7F80D4CB0
:1010500000222021204600F079FA012210212046AA
:1010600000F074FA44F2CC624FF0FF3306490748AF
:1010700001F074F920460122BDE81040202100F063
:1010800065BA0000000800484C1A03081C02001052
:1010900070B5184C184D4FF4FA66207830B901201D
:1010A0002070284601F0FCFA286846622A68002071
:1010B000516A5662C1F5FA6162681144616005299E
:1010C00002DD0520606007E06FF00402914201DA62
:1010D000626008E0002905DD61684FF01200A1F1AF
:1010E000010105E005DA61684FF0110001F101012D
:1010F000616070BD0002001014030010704706F01C
:1011000019FC2FF02BF900252C4624F003FD0520B7
:101110002FF09CFC641D6D1D142D02D3002526F0BC
:10112000B3F8322CF1D3002426F04AF80028ECD092
:101130002FF0CEF9E9E710B590F82510002202292A
:1011400005D00421C16380F82420012010BD01686E
:101150000B6823F00E030B6001680B6823F001039A
:101160000B6090F84410046C01F01C03012101FA9B
:1011700003F3636080F8251080F82420104610BD2A
:1011800010B590F825100024022903D00421C16372
:1011900001241AE001680A6822F00E020A60016860
:1011A0000A6822F001020A6090F84410036C01F012
:1011B0001C02012101FA02F25A6080F82510002178
:1011C00080F82410816B01B18847204610BDF0B42F
:1011D000016C0C6801680D6890F8442002F01C0650
:1011E000042202FA06F3234211D06B070FD50B68D5
:1011F0009B0603D40B6823F004030B6090F84410A3
:1012000001F01C018A40016C4A60016B1DE0022361
:1012100003FA06F727424FF0000C4FF0010218D0F6
:10122000AF0716D50C68A40605D40C6824F00A0490
:101230000C6080F8252090F8441001F01C018B40D0
:10124000016C4B6080F824C0C16A00291AD0F0BC40
:1012500008470823B340234214D02B0712D50B684C
:1012600023F00E030B6090F84410036C01F01C0196
:1012700002FA01F15960C26380F8252080F824C089
:10128000416BE2E7F0BC704770B568B12B4C036866
:1012900014212B4AA34209D22A4C1C44B4FBF1F17D
:1012A0008900C0E910210BE0012070BD234C64428D
:1012B0001C44B4FBF1F18900416420490839016400
:1012C000022180F825101C6847F6F0718C43D0E9A4
:1012D00002152943D0E9045635432943856929433A
:1012E000C5692943056A2943214319608168B1F51D
:1012F000804F19D0036C0F21934202D152F8A83FBE
:1013000002E00E4AA032136890F8444004F01C0436
:10131000A1408B43136090F84430416803F01C03F4
:1013200099401368194311600021C163012280F8BC
:10133000252080F82410084670BD000008040240F3
:1013400000000240F8FFFDBF70B5044600F004F94C
:101350000546601C02D004480078044400F0FCF804
:10136000401BA042FAD370BD000000202DE9F04FD1
:10137000DFF8AC9100230325A9F1040B85B04FF0F1
:10138000010C0F2709F1040AABF1040EBFE000BF06
:101390000CFA03F6324075D00C7904F00304012CEA
:1013A00001D0022C1BD1846800945C0005FA04F87B
:1013B0000494009C24EA08040094D1F80C80049C56
:1013C00008FA04F8009C48EA0408C0F80880446859
:1013D000B4430E79C6F300169E40264346600C794E
:1013E000E443A4070AD0C4684FEA430805FA08F6A4
:1013F000B4438E6806FA08F62643C6600C7904F0FA
:101400000304022C10D1DC0800EB84040294246A4B
:101410005E074FEAD66807FA08F6B4430E6906FA83
:1014200008F62643029C266204684FEA430805FA40
:1014300008F6B4430E7906F0030606FA08F62643CA
:1014400006604C6814F4403F60D0364C266E46F07F
:1014500001062666246E23F0030604F001040094BE
:10146000314C34440294A4689E074FEA167807FA78
:1014700008F6B443B0F1904F05D02C4EB04204D1E1
:10148000012612E042E000260FE0294EB04201D1D1
:1014900002260AE0274EB04201D1032605E0264E7F
:1014A000B04201D1042600E0072606FA08F62643DA
:1014B000029CA660D9F800604C46D1F8048096439F
:1014C0005FEAC82800D516432660DAF80040564681
:1014D000D1F8048094435FEA882800D5144334602F
:1014E000DBF800405E46D1F8048094435FEA883818
:1014F00000D514433460DEF800407646D1F804800D
:1015000094435FEAC83800D5144334605B1C0A6812
:1015100032FA03F47FF43CAF05B000F00FB80000DE
:10152000080401400010024000000140000400488F
:1015300000080048000C00480010004830BCBDE81E
:10154000C08F0069084000D0012070470AB1816156
:101550007047816270470000014880687047000052
:1015600000000020024881680278114481607047C1
:101570000000002010B50024032000F09FF80F2089
:1015800000F008F808B1012401E000F04FF820460F
:1015900010BD000030B505461F4887B0816D41F091
:1015A00020018165806D06A900F02000009001A84F
:1015B00000F0D2FA0498B0B100F0EEFA40001749FA
:1015C000174AB0FBF1F11748491E0260416040F232
:1015D000E7320021C0E903218160816101F004F854
:1015E000040003D015E000F0D7FAE8E70D4801F059
:1015F0007FF804000DD1372000F032F8102D07D20B
:1016000000222946372000F039F80748056000E03D
:10161000012407B0204630BD0010024040420F00B8
:10162000001400403C030020040000200B4882B05E
:10163000016E41F001010166016E01F001010091AE
:10164000816D41F080518165806D002200F08050F5
:1016500000900F21901E02B000F010B80010024060
:10166000002809DB00F01F020121914040098000A1
:1016700000F1E020C0F8001170470000F0B40E4BFC
:101680001B680C46C3F30223C3F10705042D00D9E0
:101690000425191D072901D2002300E0DB1E0126C5
:1016A00006FA05F1491E214099409E40761E1640DB
:1016B0003143F0BC03F0FCBA0CED00E0064900F049
:1016C000070208684FF6FF03184040EA0220034A69
:1016D00010430860704700000CED00E00000FA05C0
:1016E0001649B0F5007F0868C0F3412009D00228F0
:1016F00005D0086820F4C06040F4806008600020D5
:1017000070470128FBD0086820F4C06040F40070E6
:1017100008600B483222006850430A4AB0FBF2F0DE
:10172000401C00E0401E4A69520501D50028F9D14D
:1017300048694005E3D50320704700000070004071
:101740000C00002040420F000248006800F4C06016
:1017500070470000007000402DE9F84F0446002754
:101760000088A84D3E46000515D5606C60B1B0F507
:10177000000F04D0B0F5400F2BD001270AE0E86835
:1017800040F48030E86024E00021201D02F0D0F811
:1017900007001ED03E46206880033AD5A86D4FF062
:1017A0000008C00009D4A86D40F08050A865A86D5D
:1017B0004FF0010800F080500090DFF84CA2DAF8FA
:1017C000001041F48071CAF80010FFF7C5FE814691
:1017D00010E0D5F88800616C20F440000843C5F89B
:1017E0008800D8E7FFF7B8FEA0EB0900022801D96E
:1017F000032705E0DAF80000C005F3D5002F7DD0FF
:101800004FEA0706B8F1000F03D0A86D20F0805012
:10181000A8652078C00707D0D5F88800216A20F095
:1018200003000843C5F888002078800707D5D5F85D
:101830008800616A20F00C000843C5F88800207811
:10184000400707D5D5F88800A16A20F0300008438A
:10185000C5F888002078800607D5D5F88800E16AA9
:1018600020F440600843C5F888002088800507D52B
:10187000D5F88800E16B20F440200843C5F88800C3
:101880002088400507D5D5F88800216C20F4401049
:101890000843C5F888002078400607D5D5F88800A9
:1018A000216B20F440500843C5F8880020780006DA
:1018B00007D5D5F88800616B20F440400843C5F88F
:1018C00088002088C00507D5D5F88800A16B20F4D2
:1018D00040300843C5F8880020684FF000670003D7
:1018E0004FF0806850D5D5F88800A16C20F040609A
:1018F0000843C5F88800A06CB84200E005E03BD181
:10190000E86840F48010E8603EE0D5F8900010F4FC
:10191000407014D0A16D814211D0D5F89000D5F857
:10192000901020F4407041F48031C5F89010D5F843
:10193000901021F48031C5F89010C5F89000C007D0
:1019400011D0FFF709FE074641F2883907E000BFD2
:10195000FFF702FEC11B494501D9032652E7D5F81E
:1019600090008007F4D5D5F89000A16D20F4407068
:101970000843C5F8900045E7404505D10121201DE9
:1019800001F0D6FF00B106462068400317D5D5F810
:101990008800E16C20F040600843C5F88800E06CE6
:1019A000B84204D1E86840F48010E86007E04045A0
:1019B00005D10121201D01F0BBFF00B106462088A2
:1019C000400411D5D5F88800216D20F0405008431F
:1019D000C5F88800206DB0F1805F05D10221201D7F
:1019E00001F0A6FF00B106462088000406D555F890
:1019F000880F616D20F0804008432860304600F079
:101A000005B80000001002400070004018BCBDE89E
:101A1000E08F00002DE9F0470F4605006BD0494EDE
:101A2000306800F00700B84209D2306820F00700A3
:101A300038433060306800F00700B8425BD1287846
:101A4000414C80070AD5A868A16801F0F0018842DE
:101A500004D9A16821F0F0010143A1602878C007F2
:101A60002CD06868032811D0022812D0216898B1C0
:101A7000490500293FDAA16821F003010143A16073
:101A8000FFF76AFD804641F2883910E0216889013C
:101A9000EFE721688903ECE78907EAE7FFF75CFDD8
:101AA000A0EB0801494502D90320BDE8F087A068F2
:101AB000696800F00C00B0EB810FEFD12878800747
:101AC0000AD5A868A16801F0F001884204D2A16893
:101AD00021F0F0010143A160306800F00700B84236
:101AE0000BD9306820F0070038433060306800F0D0
:101AF0000700B84201D00120D7E72878400705D574
:101B0000A068E96820F4E0600843A0602878000736
:101B100006D5A068296920F4605040EAC100A060A1
:101B200000F05EF8A168094AC1F30311515C01F0AD
:101B30001F01C8400649086006480068BDE8F04734
:101B4000FFF728BD0020024000100240CC19030816
:101B50000C000020040000200F2202600C4A936851
:101B600003F003034360936803F0F003836093681A
:101B700003F4E063C36092684FF4E06303EAD202C7
:101B800002610448006800F0070008607047000028
:101B9000001002400020024005480649006889689C
:101BA000054AC1F30221515C01F01F01C840704792
:101BB0000C000020001002400C1A030805480649DA
:101BC00000688968054AC1F3C221515C01F01F0118
:101BD000C84070470C000020001002400C1A030897
:101BE00070B52449002318468A68CC6812F00C02AC
:101BF00004F00306204C214D09D00C2A05D0042AFC
:101C000032D0082A00D1284670BD012E10D10B68B1
:101C10001B0704D4D1F89430C3F3032302E00B680C
:101C2000C3F30313164E56F82330DAB10C2AEBD166
:101C3000C86800F00300022818D0032818D01846FE
:101C4000CA68CB68C2F30212C3F306234343521C93
:101C5000B3FBF2F2C868C0F34160401C4000B2FB25
:101C6000F0F070BD184670BD204670BD2046E7E715
:101C70002846E5E7001002400024F40040787D018A
:101C8000DC1903082DE9F84304006FD0FA4DA86869
:101C900000F00C06E86800F003072078C00664D561
:101CA00076B10C2E01D1012F0AD0A0690028286836
:101CB0007AD040F001002860FFF74EFC80465DE0DE
:101CC0002868800702D5A0690028DED0216A28682C
:101CD000000703D5286800F0F00004E0D5F8940070
:101CE000F02202EA1010814216D9084601F0B6FE31
:101CF00000283BD1286840F0080028602868216A45
:101D000020F0F000084328606868E16920F47F4013
:101D100040EA0120686016E0286840F0080028606A
:101D20002868216A20F0F000084328606868E169AB
:101D300020F47F4040EA0120686026B9206A01F063
:101D40008DFE0028D5D1FFF74BFFA968CB4AC1F320
:101D50000311515C01F01F01C840C9490860C9481E
:101D60000068FFF717FC00287ED12EE0CAE000BF14
:101D7000FFF7F2FBA0EB0800022876D8286880075E
:101D8000F6D5286840F0080028602868216A20F00D
:101D9000F000084328606868E16920F47F4040EA69
:101DA0000120686011E0FFE720F001002860FFF7E4
:101DB000D3FB804606E000BFFFF7CEFBA0EB080098
:101DC0000228DAD828688007F6D42078C00740D0E7
:101DD000082E18D00C2E01D1032F14D06068B0F556
:101DE000803F17D0B0F5A02F286817D020F480309E
:101DF0002860286820F4802028606068E0B1FFF740
:101E0000ABFB804614E02868800322D56068002878
:101E100078D01EE0286840F48030EDE740F4802060
:101E20002860F7E7FFF798FBA0EB08006428A4D828
:101E300028688003F6D50CE0FFF78EFB804605E0AE
:101E4000FFF78AFBA0EB0800642896D82868800377
:101E5000F6D4207880073BD5042E11D00C2E01D16A
:101E6000022F0DD0E06801E0AAE1FFE00028286819
:101E70001ED040F480702860FFF76EFB07460CE030
:101E8000286840050CD5E0680028C1D008E000BFF4
:101E9000FFF762FBC01B022893D828684005F7D5DE
:101EA0006868217C20F0F85040EA016068600FE02B
:101EB00020F480702860FFF74FFB074605E000BF65
:101EC000FFF74AFBC01B0228B1D828684005F7D4A9
:101ED0002078000729D560690028D5F8940012D031
:101EE00040F00100C5F89400FFF736FB074604E018
:101EF000FFF732FBC01B022899D8D5F89400800761
:101F0000F6D512E02BE120F00100C5F89400FFF7B0
:101F100023FB074605E000BFFFF71EFBC01B02289E
:101F200085D8D5F894008007F6D42078400766D588
:101F3000A86D0027C00008D4A86D40F08050A865A7
:101F4000A86D012700F0805000904F480168C90536
:101F500012D40168814641F480710160FFF7FCFAF8
:101F6000804605E0FFF7F8FAA0EB080002287DD8CC
:101F7000D9F80000C005F5D5A068012816D00528BD
:101F8000D5F8900017D020F00100C5F89000D5F8E2
:101F9000900020F0040000BFC5F89000A06841F256
:101FA0008839C0B1FFF7D8FA80460FE0D5F8900025
:101FB00040F00100F0E740F00400C5F89000F5E7BC
:101FC000FFF7CAFAA0EB080149454FD8D5F89000B1
:101FD0008007F5D50EE0FFF7BFFA804606E000BFA8
:101FE000FFF7BAFAA0EB080149453FD8D5F89000B1
:101FF0008007F5D41FB1A86D20F08050A865207827
:10200000800628D5606A0028D5F8980012D040F0E4
:102010000100C5F89800FFF79FFA074605E000BFEA
:10202000FFF79AFAC01B022820D8D5F8980080073D
:10203000F6D510E020F00100C5F89800FFF78CFA03
:10204000074604E0FFF788FAC01B02280ED8D5F82F
:1020500098008007F6D4A06AF0B3022816D00C2EA0
:102060007DD0286820F08070286000E0A7E0FFF7AE
:1020700073FA0446A6E0000000100240CC190308E1
:102080000C0000200400002000700040E868E26AB4
:1020900000F00301914228D1216B00F07002090188
:1020A0001039914221D1626B00F4FE41B1EB022F55
:1020B0001BD194F8382000F07841B1EBC26F14D1F5
:1020C000A18F00F4C00249084905A1F50011914211
:1020D0000BD194F8401000E06AE04908490600F08E
:1020E000C060A1F1007181424BD00C2E73D02868E2
:1020F000400170D4286820F080702860FFF72CFA27
:10210000064604E0FFF728FA801B022857D8286803
:102110008001F7D4F4E90B016FF00F0202EB01111B
:102120000843218A5204490802EB4151A26841EA5E
:1021300002210843217D4FF07E42490802EB4161B4
:102140000843217B40EAC160E968244A1140084302
:10215000E860286840F080702860E86800E03AE0B5
:1021600040F08070E860FFF7F7F9044605E000BF33
:10217000FFF7F2F9001B022821D828688001F7D563
:1021800027E02868800124D4286840F08070286007
:10219000E86840F08070E860FFF7DEF9044604E08C
:1021A000FFF7DAF9001B022809D828688001F7D563
:1021B0000FE000BFFFF7D0F9001B022802D903206F
:1021C000BDE8F88328688001F4D4E8680449084031
:1021D000E8600020F4E70120F2E700008C809D0118
:1021E000FCFFEEFE70B5040009D0606A002540B126
:1021F00025616561A56294F85D0040B10CE00120A5
:1022000070BD6068B0F5827FF4D0E561F2E784F8D4
:102210005C50204600F056F8022084F85D002068EB
:10222000016821F040010160E1684FF4E0629142F1
:1022300001D9002001E04FF48050B1F5706F02D059
:10224000914200D0A562A188228901F4827102F432
:1022500004421143227C02F002021143227D02F06B
:1022600001021143228B02F400721143227F02F01B
:102270003802114394F8202002F080021143228D8D
:1022800002F40052114322681160A169042202EA9B
:10229000114194F8242000F4805002F01002114300
:1022A00094F8342002F008021143A28902F470620B
:1022B00011430143206841602566012084F85D00D8
:1022C000002070BD70B586B0064614216846FEF742
:1022D00069F81E493068884236D11D49086E40F4BD
:1022E00080500866086E00F480500590C86C40F07D
:1022F0000100C864C86C002500F001000590E020D2
:1023000000900220CDE901050320039005200490F0
:1023100069464FF09040FFF729F80F4C0D482060B8
:10232000012060601020C4E902058020C4E9040592
:102330008001A561C4E907502046FEF7A5FF08B15A
:10234000FEF7DCFE7465A66206B070BD0030014089
:102350000010024030000240800200102DE9F84FCA
:10236000984616468A460446FFF7F6F8814694F8E2
:102370005D00012820D1BAF1000F6FD0002E6DD082
:1023800094F85C00012817D0012784F85C700320C2
:1023900084F85D0000252566C4F838A0A687E68786
:1023A0002564A4F84450A4F846502565E564A06867
:1023B000B0F5004F03D00CE0022000F096B8206882
:1023C000016821F0400101602068016841F480410A
:1023D000016020680168490603D4016841F04001AA
:1023E0000160E068B0F5E06F606826D908B1012EA1
:1023F0001FD1A06B21680088C86006E02068816852
:10240000890709D5A16B0988C160A06B801CA063F6
:10241000E08F401EE0870CE0FFF79EF8A0EB09017B
:10242000414503D3B8F1FF3F03D04BE0B8F1000FB3
:1024300048D0E08F0028E1D139E008B1012E33D136
:10244000E08F0128A06B03D921680088C86010E0E4
:1024500021680078087314E0E08725E043E02068F5
:102460008168890713D5E18F0129A16B07D90988F4
:10247000C160A06B801CA063E08F801EECE7097830
:102480000173A06B401CA063E08F401EE4E7FFF7E0
:1024900063F8A0EB0901414503D3B8F1FF3F03D036
:1024A00010E0B8F1000F0DD0E08F0028D7D14A46D8
:1024B0004146204601F0A0FC08B120202066A0681B
:1024C00030B109E084F85D7084F85C50032074E753
:1024D0002068C1688068009084F85D7004F85C5FD3
:1024E00060680028F3D0012067E718BCBDE8E08FE2
:1024F000704770477047000030B590F83C20012AC3
:1025000037D0012280F83C20CA688C6822F44072DF
:1025100022434C6822F4806222430C6822F4006259
:1025200022430C6922F4805222434C6922F4005267
:1025300022438C6A22F4804222430C8B22F47022C4
:1025400042EA04420C4D04680023AC420CD18D8C4D
:1025500022F4700242EA0552CD6922F080722A43C9
:10256000096A22F000720A43626480F83C3000205D
:1025700030BD022030BD0000002C0140F0B590F8C5
:102580003C20012A29D0012480F83C40022280F816
:102590003D2003685A689D68114EB34203D122F46E
:1025A00070074A683A4322F070070A683A435A6053
:1025B0000268B24205D0B2F1804F02D0094B9A4274
:1025C00004D1896825F080031943916080F83D406B
:1025D000002180F83C100846F0BD0220F0BD00004C
:1025E000002C01400040014010B5040003D094F8D5
:1025F0003D0010B107E0012010BD002084F83C0030
:10260000204600F023F8022084F83D00211D2068B8
:1026100001F022FF012084F8480084F83E0084F88D
:102620003F0084F8400084F8410084F8420084F8B8
:10263000430084F8440084F8450084F8460084F898
:10264000470084F83D00002010BD000008B5114A85
:1026500001681148914207D1016E41F400610166A1
:10266000006E00F4006009E00C4A914211D1016E45
:1026700041F400310166006E00F400300090002249
:1026800005211920FEF7FAFFBDE808401920FEF7E2
:10269000E7BF08BD002C014000100240004401408B
:1026A00090F83D10012901D001207047022180F8E7
:1026B0003D1000680B49884205D0B0F1804F02D030
:1026C0000949884207D18168084A1140062906D085
:1026D000B1F5803F03D0016841F0010101600020A5
:1026E00070470000002C014000400140070001003D
:1026F00090F83D10012901D001207047022180F897
:102700003D100168CA6842F00102CA6000680B49C6
:10271000884205D0B0F1804F02D00949884207D1E4
:102720008168084A1140062906D0B1F5803F03D0E0
:10273000016841F00101016000207047002C014058
:10274000004001400700010070B5044690F83C00CD
:102750000025012817D0012684F83C60022084F867
:102760003D00226890682F4B184020F47F40906015
:102770000868502838D00DDC20284FD005DC90B3F5
:10278000102811D14AE0022070BD302846D04028E0
:102790000AD13BE060282FD070280DD0B0F5805FC3
:1027A00003D0B0F5005F12D0012584F83D60002011
:1027B00084F83C00284670BDCB68D1E9012120682F
:1027C00001F093FE2068816841F0770109E0CB6851
:1027D000D1E90121206801F088FE2068816841F478
:1027E00080418160E1E719E0CA684968206801F02A
:1027F000CDFF5021206806E0CA684968206801F0D2
:10280000D6FF6021206801F07AFECEE7CA684968E9
:10281000206801F0BBFF40212068F4E722680146F0
:102820001046F0E788FFFEFF2DE9F0410D46040059
:1028300003D094F83D0018B108E00120BDE8F08114
:10284000002084F83C00204600F042F8022084F882
:102850003D00206881681D4A11408160211D20686B
:1028600001F0FAFD226890689169166A2B68AF69D9
:10287000034340F20330814341EA0721A868EF692E
:1028800008434FF6FC418843E96840EA07200143CA
:1028900028692F6A000140EA0730084369686D69BA
:1028A00026F0AA0646EA051529439360226890613E
:1028B00054F8480B0162012004F81F096075A075E7
:1028C000E076207720750020B8E70000F8BFFEFF13
:1028D00010B586B0044614216846FDF763FD2068F4
:1028E000B0F1804F1ED11048816D41F0010181652A
:1028F000816D01F001010591C16C41F00101C164DC
:10290000C06C002100F0010005900320009002201F
:1029100001900120CDE90201049069464FF09040FA
:10292000FEF724FD06B010BD0010024070B590F80F
:102930003E60044690F83F5090F8443090F84520AF
:10294000022021B104290ED0012E1BD114E0012E4A
:1029500018D1012B16D184F83E0084F844000122DE
:102960000021206820E0012D0CD1012A0AD184F831
:102970003F0084F8450014E0012D03D1012B01D163
:10298000012A01D0012070BD84F83E0084F83F0088
:1029900084F8440084F8450001220021206801F0F9
:1029A00097FD01220421206801F092FD2068016852
:1029B00041F001010160002070BD70472DE9F04138
:1029C00004460068C66805694FF00007A90713D5DB
:1029D000B10711D5F91E01610120207720688069B7
:1029E0008007204602D0FFF7E8FF04E000F0D0F8AF
:1029F000204600F0A5F92777680716D5700714D58B
:102A000021686FF004000861022020772068806947
:102A100010F4407F204602D0FFF7CFFF04E000F023
:102A2000B7F8204600F08CF92777280715D530072E
:102A300013D521686FF00800086104202077206812
:102A4000C0698007204602D0FFF7B7FF04E000F01E
:102A50009FF8204600F074F92777E80616D5F006AF
:102A600014D521686FF010000861082020772068D5
:102A7000C06910F4407F204602D0FFF79EFF04E0BB
:102A800000F086F8204600F05BF92777E80708D0C9
:102A9000F00706D021686FF001000861204600F0C1
:102AA000B9F9280601D4A80408D5300606D521684E
:102AB0006FF4025008612046FFF71BFDE80508D5BA
:102AC000300606D521686FF4807008612046FFF754
:102AD0000FFD680608D5700606D521686FF0400026
:102AE0000861204600F0ACF9A8060AD5B00608D562
:102AF00021686FF0200008612046BDE8F041FFF733
:102B0000F9BCBDE8F081000010B586B00446142180
:102B10006846FDF747FC2368194C0021194802223A
:102B2000A34213D1C36C43F00103C364C06C00F033
:102B3000010005904FF4E0600090CDE901210120F3
:102B4000CDE9031069464FF0904014E00E4CA342CB
:102B500013D1C36C43F00203C364C06C00F00200E5
:102B600005904FF480400090CDE901210E20CDE981
:102B7000031069460548FEF7F9FB06B010BD0000DA
:102B8000002C0140001002400040014000040048B9
:102B9000704770B5044690F83C0000260D460128A9
:102BA0000BD0012084F83C000C2A4AD007DC82B10B
:102BB000042A20D0082A06D131E0022070BD102A54
:102BC00053D0142A63D00126002084F83C003046FC
:102BD00070BD206801F09CFC2068816941F008010B
:102BE00081612068816921F0040181612068816927
:102BF0002A69114311E0206801F0C6FC2068816950
:102C000041F4006181612068816921F48061816102
:102C1000206881692A6941EA02218161D4E720683C
:102C200001F0EEFC2068C16941F00801C161206833
:102C3000C16921F00401C1612068C1692A69114399
:102C400011E0206801F016FD2068C16941F40061BF
:102C5000C1612068C16921F48061C1612068C169D6
:102C60002A6941EA0221C161AEE7206801F032FD24
:102C70002068416D41F0080141652068416D21F0F7
:102C8000040141652068416D2A69114311E0206803
:102C900001F04EFD2068416D41F4006141652068FE
:102CA000416D21F4806141652068416D2A6941EAE6
:102CB0000221416588E710B5040003D094F83D0077
:102CC00010B107E0012010BD002084F83C00204630
:102CD00000F022F8022084F83D00211D206801F058
:102CE000BBFB012084F8480084F83E0084F83F00D4
:102CF00084F8400084F8410084F8420084F84300DE
:102D000084F8440084F8450084F8460084F84700BD
:102D100084F83D00002010BD08B5006806498842CF
:102D200008D10648016E41F480310166006E00F45E
:102D30008030009008BD00000040014000100240BB
:102D40007047000010B50446022269B1042912D070
:102D5000082917D00C291CD0102921D094F8430041
:102D6000012824D0012010BD94F83E000128F9D19B
:102D700084F83E201DE094F83F000128F2D184F849
:102D80003F2016E094F840000128EBD184F8402061
:102D90000FE094F841000128E4D184F8412008E0D4
:102DA00094F842000128DDD184F8422001E084F843
:102DB00043200122206801F08BFB12492068124A4F
:102DC000884204D0904202D0104B984203D1436C09
:102DD00043F4004343642068884204D0B0F1804F3C
:102DE00001D0904207D18168094A1140062906D0D6
:102DF000B1F5803F03D0016841F00101016000207E
:102E000010BD0000002C0140004001400044014082
:102E10000700010010B5044600680749884201D147
:102E2000FEF7A0FB05492068884204D1BDE81040A8
:102E3000142004F0DFBF10BD001400400044014026
:102E400070477047704770472DE9F04102680446AB
:102E5000D0691168936840F60F0528424FF00005CD
:102E60004FF0020605D187067ED58F067CD5A16E70
:102E700033E1DFF894C203F0010701EA0C0C57EAD2
:102E80000C0C71D05FEAC07C0CD05FEAC15C09D544
:102E90004FF0010CC2F820C0D4F8842042F00102A7
:102EA000C4F88420820709D5DA0707D022681662A1
:102EB000D4F8842042F00402C4F8842042070AD5E2
:102EC000DA0708D0236804221A62D4F8842042F07A
:102ED0000202C4F8842002070CD501F020023A4314
:102EE00008D0236808221A62D4F8842042F008022D
:102EF000C4F8842002050BD54A0109D523684FF494
:102F000000621A62D4F8842042F02002C4F88420BF
:102F1000D4F88420002A36D0800605D5880603D54B
:102F2000A16E09B120468847D4F8840021688968D9
:102F3000490602D410F0280F27D0204601F00EFDDC
:102F40002068806840061BD52068083050E8001FC4
:102F500021F0400140E80012002AF5D1606F78B1FD
:102F60006A498163606F00E015E0FEF709F9002807
:102F700009D0606F816B00E02046BDE8F041084752
:102F80002046FFF760FFBDE8F0812046FFF75BFFBA
:102F9000C4F88450F7E7D4F860C02027BCF1010FD3
:102FA0007ED15FEAC06C7BD55FEAC16C78D510201A
:102FB00010622068806840064FD5616F0A685068CB
:102FC0000004000C3DD0B4F85830834239D9A4F83D
:102FD0005A000868006880062BD4206850E8001F5B
:102FE00021F4807140E80012002AF6D120680830F0
:102FF00050E8001F21F0010140E80012002AF5D13D
:103000002068083050E8001F21F0400140E800121D
:10301000002AF5D1C4F880702566206850E8001FAA
:1030200021F0100140E80012002AF6D1606FFEF78F
:1030300082F86666B4F85800B4F85A10401A81B2A3
:1030400007E0B4F8581081429DD1106880069AD5E7
:1030500066662046FFF7F5FE95E7B4F85800B4F829
:103060005A10401A81B2B4F85A0000288BD00029B7
:1030700089D0226852E8000F20F4907042E80003E3
:10308000002BF6D12068083050E8002F22F0010212
:1030900040E80023002BF5D1C4F88070256600E0DD
:1030A0000AE0A566226852E8000F20F0100042E80E
:1030B0000003002BF6D1CBE7C60209D55B0207D58A
:1030C0004FF4801010622046BDE8F041FFF7BABE11
:1030D000020606D50A0604D5E16E00297FF44CAF3E
:1030E00051E74006B8D54806B6D52046026852E8F2
:1030F000001F21F0400142E80013002BF6D1C76702
:10310000C56600F003F93EE72001000449490008C4
:1031100010B5040002D0E06F10B107E0012010BD2F
:10312000002084F87800204600F026F82420E0678C
:103130002068016821F001010160606A10B1204639
:1031400001F04AFB204601F02FFC0128E7D020685F
:10315000416821F4904141602068816821F02A0192
:1031600081602068016841F0010101602046BDE8EE
:10317000104001F095BB00002DE9F0419EB00646DD
:10318000142117A8FDF70EF95C216846FDF70AF92E
:103190003149306888425CD10820022709900097A5
:1031A0006846FEF7D9FA08B1FDF7A8FF2B48816DF4
:1031B00041F400318165816D01F400311C91C16CD5
:1031C00041F00101C164C06C002400F001001C90BA
:1031D0000C20CDE917070320CDE9194007201B90EB
:1031E00017A94FF09040FEF7C1F81E4D1C484FF054
:1031F00080082860C5E90174C5E903486C61AC61C9
:10320000EC6128462C62FEF73FF808B1FDF776FF27
:103210007567AE62134D124848351430E5E8020771
:103220001020A5E811010F4845F814494830AC6159
:10323000EC612C62FEF728F808B1FDF75FFF3567F7
:10324000002205212620AE62FEF718FA2620FEF79E
:1032500007FA1EB0BDE8F0810044004000100240B3
:103260006C000240AC0200202DE9F8430446C06F18
:10327000984616460D46202802D00220BDE8F88365
:1032800095B18EB10020C4F884002120E067FEF7DC
:1032900063F9A4F850608146A4F85260A068202722
:1032A000B0F5805F02D003E00120E7E7206910B1AC
:1032B0002E46002510E000260EE08021204601F079
:1032C00073FCC0B9D6B116F8010B21680885B4F8B3
:1032D0005200401EA4F85200B4F852004B464FF082
:1032E0000002CDF800800028E7D14FF040012046D1
:1032F00001F05AFC38B1E7670320BFE735F8020B4D
:10330000C0F30800E1E7E7670020B7E77047FEE792
:103310002DF0D6FC04F0A8FD012004F065FD0DA001
:1033200001F0B6FC2BF050FE00F0CCFE19F008FDC9
:103330001FF062FF1FF082FF0948FFF7D9F93C2117
:103340000848FFF7F3FA2EF02DFA00202DF0EAFBE3
:10335000DEE7000074657374206F6E0D0A000000D4
:10336000AC0300101403001010B50C4669280BD0F4
:103370006A280DD009480078002804D014B1084606
:1033800017F0D3FE012010BD012002E02046F7E730
:10339000002000F027F8002CF8D1F3E70802001015
:1033A00010B50D4C0020207060700C48D0F8B400AF
:1033B00008B101F0D4FE11F009FC606800280AD1C0
:1033C00000224FF49661064822F072FB6060BDE86F
:1033D000104022F03BBC10BD0802001078AC002069
:1033E000A54B010810B5044606480470447011F05E
:1033F000EDFB84F00100BDE810404FF4966111F040
:10340000FDBB00000802001010B5144659B10F4A68
:103410000F4B914201D1672807D00C4A7C32914270
:1034200001D1672805D0002010BD0A49D3F88400D7
:1034300003E00849D3F88800491C2CF040FD2DF02A
:10344000F7F8204617F071FE012010BDE0300010A3
:1034500078AC00200A02001070B50F480F4C104DD8
:10346000C068A0600C487C30C068E060D5F884007B
:1034700028B101211DF0F7FE80F00100A070D5F801
:10348000880028B101211DF0EEFE80F00100E070FF
:10349000BDE870402DF0CCB8E82F001008020010F5
:1034A00078AC00202DF0C4B8114808B5816C41F00B
:1034B00001018164806C002200F001000090052170
:1034C0000D20FEF7DBF80D20FEF7CAF800220521DB
:1034D0001020FEF7D3F81020FEF7C2F800220521D5
:1034E0001120FEF7CBF8BDE808401120FEF7B8B870
:1034F0000010024010B501F0A9FB064823F0B8FC0B
:10350000054C044A00216060243A044823F0E4FC9E
:10351000206010BDBC19030800000010A54300087E
:103520002DE9F04F87B014216846FCF73BFF6C484B
:10353000C16C41F00401C164C16C01F0040105914A
:10354000C16C41F00101C164C16C01F00101059140
:10355000C16C41F00201C164C16C01F0020105912E
:10356000C16C41F00801C164C16C01F00801059112
:10357000C16C41F08001C164C06CDFF8689100F05B
:1035800080004FF4D8440590012221464846FDF7BB
:10359000DDFF002239214846FDF7D8FF4FF0904A61
:1035A000012248F210015046FDF7D0FF002240F6FC
:1035B00003414D48FDF7CAFF01224FF218314A4836
:1035C000FDF7C4FFDFF824B1012204215846FDF7BE
:1035D000BDFF012208214648FDF7B8FF1126CDE9BD
:1035E000004601250024CDE9025469464846FDF70E
:1035F000BDFE31200090CDE9015469464846039450
:10360000FDF7B4FE08274FF00208CDE90284CDE9AA
:10361000007569464846FDF7A9FE1020CDE9000572
:10362000CDE9025469465046FDF7A0FE0095CDE96C
:10363000015469462C480394FDF798FE40F6024079
:1036400003948DE8210169462748FDF78FFE41F27A
:103650001810CDE90006CDE9025469462248FDF76D
:1036600085FE4FF46240CDE90005CDE9025469467C
:103670001D48FDF77BFE4020CDE900046946484621
:103680000294FDF773FE2803CDE900046946504615
:103690000294FDF76BFEE803CDE90006CDE9025484
:1036A00069465046FDF762FE0420CDE90006CDE9EB
:1036B000025469465846FDF759FE6020CDE90004E2
:1036C000694609480294FDF751FECDE90075CDE940
:1036D000025469460648FDF749FE07B000F00AB8F3
:1036E000001002400008004800040048000C004898
:1036F000001C004830BCBDE8C08F0000114810B568
:103700000F4901604FF48271416000214FF4E06283
:10371000C0E902124FF400720161C0E90512C161F3
:10372000016207224162C0E90A1201634163FEF7A8
:1037300059FD002803D0BDE81040FDF7DFBC10BDE7
:10374000003001401C0200100C4810B50A4901600D
:1037500041F63F7141600021C722C0E902120161B8
:10376000416180218161FEF73FFF002803D0BDE861
:103770001040FDF7C3BC10BD00440140AC03001075
:1037800070B59AB000241794189415941694129456
:1037900013941C2168461494FCF704FE2C2107A8FE
:1037A000FCF700FE364835490225C0E900154FF602
:1037B000FF71C0E9024180210461C0E90541FEF7C3
:1037C00013FF08B1FDF79AFC4FF48050159015A92E
:1037D0002B48FEF7B9FF08B1FDF790FC2848FFF72A
:1037E0006AFA08B1FDF78AFC1294139412A92448CE
:1037F0001494FEF7C3FE08B1FDF780FC60208DE84D
:1038000031004FF48076CDE90446039400226946E6
:103810001B480694FFF7BDF908B1FDF76FFC0422C1
:103820006946174805960295FFF7B3F908B1FDF709
:1038300065FC02940822694611480594FFF7A9F92E
:1038400008B1FDF75BFC0794089409944FF400500D
:103850000A94CDE90B400003CDE90E400D9410947D
:1038600007A907481194FEF747FE08B1FDF746FC8B
:103870000348FFF749F91AB070BD0000002C014061
:10388000C802001010B58CB024216846FCF78AFDF0
:103890000024164809940A944FF080410B9401606B
:1038A0000121C0E901148A1EC0E9032484610220B9
:1038B000CDE900100F200291CDE90340CDE905418B
:1038C000CDE9074069460948FEF7AEFF08B1FDF7AC
:1038D00015FC099409A905480B94FEF74FFE002832
:1038E00001D0FDF70BFC0CB010BD0000140300105C
:1038F0000D4810B50B4901604FF4E13141600021E2
:1039000081600C22C160C0E904128161C161016261
:103910004162FFF7FDFB002803D0BDE81040FDF732
:10392000EDBB10BD0044004024020020FEE7FEE78E
:103930002DE9F041444C05468846E06800268107A1
:1039400028680DD0E16801F00301814216D1A8B1C9
:10395000E0686968C0F30210401C88420ED120E084
:10396000012804D0022805D0032807D108E02168E7
:10397000890701E021684905002907DB01265FE08E
:103980002168890302D421684903F5E7E1686A6880
:103990006FF00F0321F0730103EB02121143014397
:1039A000E160206820F080602060FDF7D5FD0746CB
:1039B00005E000BFFDF7D0FDC01B022837D8206806
:1039C0000001F7D4B8F1000F18D0B8F1010F1DD0E5
:1039D000287D4FF07E41400801EB4060A96840EA35
:1039E00001202169194A114008432061206840F0F4
:1039F00080602060FDF7B0FD07461AE0A868297BCB
:103A0000000240EAC1602169114AECE7288A1149A5
:103A1000400801EB4050A96840EA012021690E4AA4
:103A2000E1E700BFFDF798FDC01B022801D903267E
:103A300006E020680001F5D52069A96908432061E6
:103A40003046BDE8F081000000100240FF80FFF921
:103A5000FF80FF070000E0FFFF809FFFF8B51C4DCF
:103A600006460024A86DC00002D5FDF76DFE0DE0EE
:103A7000A86D40F08050A865A86D00F080500090BF
:103A8000FDF762FEA96D21F08051A965B0F5007FB8
:103A900004D0802E07D94FF003040AE0802E08D905
:103AA000A02E01D804E001D1022402E0702E00D142
:103AB00001240848016821F00701214301600068E2
:103AC00000F00700A04201D00120F8BD0020F8BDA1
:103AD00000100240002002400348012181718173DF
:103AE0000146024826F05EB9080000108803002055
:103AF0000EB5FFF7F1FF2DF06BFD00252E46354C7E
:103B0000CDF8040023F05CFB08B135B109E0C82111
:103B100001A82CF0C1FF0025F4E72F4826F0FCF99E
:103B2000012505212C4826F01EFA38B1E06B401C17
:103B3000E063282101A82CF0AFFFE3E79FED270AFF
:103B40008DF808608DED000A6A4602A9224826F029
:103B5000F9F830B1206C401C20641F4826F0DCF9D5
:103B6000E7E79DF80800012802D0022814D02EE0D3
:103B70009DED000ADFED1A0A84ED000A94ED071AA4
:103B800070EE200A94ED080A01EE200A84ED020A84
:103B90002DF01EFD60611AE09DED000ADFED110AB7
:103BA00084ED010A94ED091A70EE200A94ED0A0AD8
:103BB00001EE200A84ED030A2DF00AFDA06194EDC8
:103BC000020AD4ED030A20EE200A84ED040AE6631B
:103BD000C3E700007C010010880300200000000003
:103BE000B616413B04E78C3B2DE9F04107001FD09E
:103BF0000024104D104E07E056F8241011B138463D
:103C000017F04CFE641CE4B228788442F4D310F020
:103C1000FF0F03D0306808B117F0AAFE0021384624
:103C200017F08BFF0121384617F0A8FF01206870BC
:103C3000BDE8F081C4010020D83100102DE9F04129
:103C40003A4E0546D0F8CC003060D5F8D40070600C
:103C5000D5F8E400B060D5F8F400F060D5F8EC00D9
:103C60003061D5F8FC0070612F4CD5F8DC00B061F4
:103C7000072020702EA001F00BF825F083FB002711
:103C8000B04618E058F827609EB1042130461BF07A
:103C90006DF825490222383130461BF0B5F82A4923
:103CA00030461EF069FB00230D22274930461BF0E9
:103CB00011F87F1CFFB220788742E3D3D5F80401C6
:103CC000D435206225F0B0F9686B606225F048FCBD
:103CD000A86BA06255F89C0CE06225F0B9FCE86B7B
:103CE000206325F041F9207A25F0D6FCE86FD43D19
:103CF000606110B101211BF039F8D5F8140160633F
:103D0000D5F83401A06110B101211BF02FF8D5F8CE
:103D10001C01E061002804D0BDE8F04101211BF046
:103D200025B8BDE8F0810000C4010020D8310010A2
:103D3000554920427574746F6E7320496E697469B9
:103D4000616C697A65640A00C59002080148407890
:103D500070470000C40100202DE9F041884600288A
:103D600044D0234C0025E07818B1206A17F088FE73
:103D7000E570607918B1606A17F082FE6571E079CC
:103D800018B1A06A17F07CFEE571A07A18B1206B1B
:103D900017F076FEA572606910B101211AF0E6FFF6
:103DA000607B18B1606B17F06BFE6573A06910B192
:103DB00001211AF0DBFFE06910B101211AF0D6FFF2
:103DC00000260C4F07E000BF57F8260008B117F097
:103DD00057FE761CF6B220788642F5D36570B8F1AE
:103DE000000003D0BDE8F04117F0C2BDBDE8F0818E
:103DF000C4010020D8310010F8B515460E460B4618
:103E00000092044600224FF4C05100F019F888B91E
:103E10003346002280212046009500F085F848B9FD
:103E2000334600224FF4C0612046009500F008F8A8
:103E3000002804D0206E40F0200020660320F8BD4A
:103E40002DE9FE4F4FF0000A984617460E460446ED
:103E50000C9D8DF804A0FDF77FFB411BA8EB01052D
:103E6000FDF77AFB814620684FF4C06B0C3002905E
:103E70002A480068C0EBC00000EB8000000D6843DA
:103E8000009043E05E4506D12FB9029800788DF886
:103E900004009DF80400B8F1FF3F37D0FDF75CFB4C
:103EA000A0EB0900A84203D215B1009858B32BE04B
:103EB0002068416821F0E00141606068B0F5827FD0
:103EC0000BD1A068B0F5004F02D0B0F5806F04D1DF
:103ED0002068016821F040010160A06AB0F5005F30
:103EE00009D12068016821F400510160206801684F
:103EF00041F400510160012084F85D0084F85CA069
:103F0000032000F00DB80025401E00902068806856
:103F10003040B842B6D10020F3E700000C0000208A
:103F20001EBCBDE8E08F00002DE9F8431E46914617
:103F300088460446089DFDF70FFB401B351AFDF728
:103F40000BFB074625480068C0F3CB30684338E0D8
:103F5000701C37D0FDF700FBC01BA84203D215B17F
:103F6000009860B32CE02068416821F0E0014160D6
:103F70006068B0F5827F0BD1A068B0F5004F02D029
:103F8000B0F5806F04D12068016821F04001016024
:103F9000A06AB0F5005F09D12068016821F40051E2
:103FA00001602068016841F400510160012084F83B
:103FB0005D00002084F85C000320BDE8F883002544
:103FC000401E00902068816838EA010004D000217A
:103FD0004945BDD10020F0E70121F9E70C000020A0
:103FE0002DE9F05F0C464FF4A071DDF828B098463B
:103FF00091460546884226D2F02C24D205EB0907CB
:104000007F1E8F421FDA04EB0806761EF02E1ADAA6
:10401000DFF838A0002220215046FDF797FAB3B20E
:10402000BAB22146284600F0E9F84FEA490101FBFF
:1040300008F1584600F03CF9504600F009B801225A
:104040002021FDF783BA00F008B8000000080048FE
:1040500030BCBDE8C05FFFF7F2BF30BCBDE8C09F19
:104060002DE9F84305460021EF2340F23F120846B0
:1040700000F0C4F8DFF84890002220214846FDF700
:1040800065FA00242E0AEFB24FF4A0785FF0000525
:104090008DF800608DF801700221684600F008F983
:1040A0006D1CADB2F02DF3D3641CA4B24445EDD326
:1040B0004846BDE8F84301222021FDF747BA000039
:1040C0000008004810B50A20FDF73EF9484C0022D0
:1040D00001212046FDF73AFA012210214548FDF75B
:1040E00035FA0A20FDF730F9012211462046FDF786
:1040F0002DFA7820FDF728F9362000F0BBF8A02033
:1041000000F008F9B02000F0B5F8002000F002F946
:10411000B22000F0AFF80C2000F0FCF8B72000F05F
:10412000A9F8352000F0F6F8BB2000F0A3F8352000
:1041300000F0F0F8C22000F09DF8012000F0EAF84D
:10414000C32000F097F8122000F0E4F8C42000F03B
:1041500091F8202000F0DEF8C62000F08BF80F2048
:1041600000F0D8F8D02000F085F8A42000F0D2F8B4
:10417000E02000F07FF8D02000F0CCF8E12000F043
:1041800079F8D02000F0C6F83A2000F073F85520F6
:1041900000F0C0F8112000F06DF89620FDF7D4F87B
:1041A0000020FFF75DFF292000F064F8002000F0F8
:1041B000B1F89620FDF7C8F8362000F05BF8A02093
:1041C00000F0A8F8FCF738FF7820FDF7BDF80821CB
:1041D0000948FEF7B7FD0024204600F0B9F80A2090
:1041E000FDF7B2F8641CE4B2642CF5D310BD0000F6
:1041F0000004004800080048C80200102DE9F843F8
:10420000DFF86C8015460E4607461C46002220212A
:104210004046FDF79BF92A2000F02CF8380A8DF86B
:1042200000008DF80170280A8DF802008DF8035007
:104230000421684600F03CF82B2000F01BF8300AFF
:104240008DF800008DF80160200A8DF802008DF8CD
:1042500003400421684600F02BF82C2000F00AF8F7
:104260004046BDE8F84301222021FDF76FB9000068
:104270000008004831B50C4C002220212046FDF7F3
:1042800065F9002210212046FDF760F94FF0FF3359
:10429000012269460548FEF761F8012220212046E7
:1042A000FDF754F938BD0000000800481C0200105A
:1042B0002DE9F047154F0C460646002220213846CE
:1042C000FDF744F9012210213846FDF73FF94FF47C
:1042D00080384FF6FF794FF0FF3A0DE0444501D3A7
:1042E000484600E0204685B253462A4631460848F3
:1042F000FEF734F82E44641B002CEFD13846BDE89D
:10430000F04701222021FDF721B9000000080048F4
:104310001C02001031B50C4C002220212046FDF774
:1043200015F9012210212046FDF710F94FF0FF3357
:10433000012269460548FEF711F801222021204696
:10434000FDF704F938BD0000000800481C02001009
:1043500010B5FCF774F99FED0C1B53EC112BFCF717
:10436000F9F89FED0B1B53EC112BFCF7F3F89FEDC5
:104370000A1B53EC112BFCF73EF8FCF76DF90849CA
:1043800080B20968C86310BD7B14AE47E17A843FF0
:104390000000000000EDE7400000000000408F40FA
:1043A000C8020010FEE710B54FF0E02000692DF0C4
:1043B00001F9012803D0BDE810402CF0F3BD10BD79
:1043C00000B597B044216846FBF7ECFF142111A813
:1043D000FBF7E8FF4FF40070FDF782F90220C101FE
:1043E0000391102104910090012105910A90CDE9DB
:1043F0000B010A210D910721CDE90E10109068469E
:10440000FDF740FC0F201190032012900020139024
:1044100014901590042111A8FDF7FCFA17B000BD07
:104420000248016841F470010160704788ED00E0C6
:1044300010B50448FEF7C2FABDE810400248FEF786
:10444000BDBA0000C8020010AC0300100148FEF71E
:10445000B5BA00003C03002070B50268194B4FF05C
:104460008046984201D0B04203D122F070044A68DD
:104470002243154C154D984205D0B04203D0A042BE
:1044800001D0A84203D122F44076CA6832434E6973
:1044900022F08002324302608A68C2620A68826245
:1044A000984203D0A04201D0A84201D1096901631A
:1044B000012141610169C90703D0016921F00101AE
:1044C000016170BD002C01400040014000440140EA
:1044D00010B501F01F030121046A99408C43046266
:1044E000016A9A401143016210BD10B5846842EA26
:1044F000032224F47F440A432243826010BD826871
:1045000022F070020A4342F0070181607047000008
:10451000F0B5056A026A22F001020262436882690C
:10452000154C25F0020522400C6822F003021443CA
:104530008A68134E2A43114D124FA84203D0B0424D
:1045400001D0B84206D122F0080CCA6842EA0C0237
:1045500022F00402A84203D0B04201D0B84205D1F3
:104560004D6923F440731D438B692B434360846181
:10457000496841630262F0BD8FFFFEFF002C0140DD
:10458000004001400044014030B5046A026A22F054
:104590001002026242688369154D2B400D6823F4B6
:1045A000407343EA052524F020038C6843EA041392
:1045B000104CA04207D1CC6823F0800343EA0413D7
:1045C00023F0400305E00C4CA04202D00B4CA0426B
:1045D00007D14C6922F4406242EA84028C6942EAC3
:1045E00084024260856149688163036230BD0000D6
:1045F000FF8FFFFE002C01400040014000440140BD
:1046000030B5046A026A22F4807202624268C369A9
:10461000144D2B400D6823F003031D4324F4007355
:104620008C6843EA0423104CA04207D1CC6823F4E1
:10463000006343EA042323F4806305E00B4CA042AB
:1046400002D00B4CA04207D14C6922F4405242EAFE
:1046500004128C6942EA04124260C5614968C16370
:10466000036230BD8FFFFEFF002C0140004001407F
:104670000044014030B5046A026A22F480520262AA
:104680004268C3690F4D24F400542B400D6823F495
:10469000407343EA05238D6844EA05340A4DA84275
:1046A00005D00A4DA84202D0094DA84204D14D6957
:1046B00022F4804242EA85124260C3614968016483
:1046C000046230BDFF8FFFFE002C0140004001401E
:1046D0000044014030B5046A026A22F4803202626A
:1046E0004268436D0E4D2B400D681D4324F400338A
:1046F0000C8943EA04430B4CA04205D00A4CA0426B
:1047000002D00A4CA04204D14C6922F4803242EA21
:1047100004224260456549688165036230BD00003E
:104720008FFFFEFF002C014000400140004401408B
:1047300030B5046A026A22F4801202624268436D54
:104740000E4D24F400142B400D6843EA05230D8917
:1047500044EA05540A4DA84205D00A4DA84202D0A9
:10476000094DA84204D14D6922F4802242EA8522F3
:10477000426043654968C165046230BDFF8FFFFE3A
:10478000002C0140004001400044014010B5036A84
:10479000046A24F001040462846924F0F00444EA09
:1047A000021423F00A020A438461026210BD10B5AC
:1047B000036A046A24F010040462846923F0A003ED
:1047C00024F4704444EA023243EA01118261016236
:1047D00010BD012021F012B990F82410090706D568
:1047E00001684A68436B22F400421A434A6090F819
:1047F0002410C90706D001684A68836A22F400328F
:104800001A434A6090F82410890706D501684A685F
:10481000C36A22F480321A434A6090F82410490790
:1048200006D501684A68036B22F480221A434A6065
:1048300090F82410C90606D501688A68836B22F4B3
:1048400080521A438A6090F82410890606D50168C0
:104850008A68C36B22F400521A438A6090F82410CD
:10486000490611D501684A68036C22F480121A4384
:104870004A60016CB1F5801F06D101684A68436C3B
:1048800022F4C0021A434A6090F82410090606D5A3
:1048900001684A68806C22F4002202434A60704733
:1048A0002DE9F84300260446C0F88460FCF754FE66
:1048B0008046206800684FF0200500076FF07E47B3
:1048C00012D54346002229042046009700F06CF9D7
:1048D00050B1216851E8000F20F0800041E800024B
:1048E000002AF6D1E56721E020680068400722D55C
:1048F000434600224FF480012046009700F054F90F
:10490000C8B1216851E8000F20F4907041E800021E
:10491000002AF6D12068083050E8001F21F001017C
:1049200040E80012002AF5D1C4F8805084F878607D
:104930000320BDE8F883E567C4F8805044F8606F51
:10494000666026760020F4E710B5806A0021A0F8A2
:104950005A10A0F85210FEF776FA10BD016851E81F
:10496000002F22F4907241E80023002BF6D1016859
:10497000083151E8002F22F0010241E80023002B0A
:10498000F5D1016E012908D1026852E8001F21F01B
:10499000100142E80013002BF6D12021C0F880104E
:1049A00000210166816670472DE9F04104460168E7
:1049B00080682269E3691043626900251A43104345
:1049C000714F0A68714B1A4002430A6020684168BF
:1049D000E26821F44051114341602168A069B94265
:1049E00001D0226A10438A6822F4306202438A604E
:1049F0006749236867488B420DD1D0F8880010F0D2
:104A0000030006D0012847D0022843D0032830D124
:104A100044E001212EE060498B420BD1D0F88800A0
:104A200010F00C0034D0042836D0082832D00C28DE
:104A30001FD133E059498B420BD1D0F8880010F0D8
:104A4000300025D0102827D0202823D0302810D19E
:104A500024E0BB420DD1D0F8880010F4406017D09C
:104A6000B0F5806F18D0B0F5006F13D0B0F5406F7F
:104A700014D010214A4A00264FF40040BB422FD1E7
:104A800071B102290FD004290FD0082973D10FE08A
:104A90000021EFE70221EDE70421EBE70821E9E738
:104AA000FDF77AF803E0104602E0FDF799F8E8B365
:104AB000626802EB420181425DD8B0EB023F5AD8F6
:104AC000010E03025008181871410023FBF7ECFB9C
:104AD000344AA0F5407191424DD82168C8604BE03E
:104AE000E3694FF6EF77834228D1092943D2DFE803
:104AF00001F005080B420D4242421000FDF74CF850
:104B000006E0FDF75BF803E0104602E0FDF768F809
:104B100060B14100606801EB5001B1FBF0F0A0F121
:104B20001001B94227D84FF6F07100E024E00140AF
:104B3000C0F3420001432068C1601DE009291AD278
:104B4000DFE801F005080B190D1919191000FDF720
:104B500023F806E0FDF732F803E0104602E0FDF727
:104B60003FF848B1616800EB5100B0FBF1F0A0F1F3
:104B70001001B94205D90125A6662846E666BDE8BA
:104B8000F08180B2A9E7000000800040F369FFEFE8
:104B9000003801400010024000440040004800403E
:104BA0000024F400FFFC0F002DE9F047994617465A
:104BB0000D4604464FF00008089E33E0701C31D0CB
:104BC000FCF7CAFCA0EB0900B04218D8BEB12068BF
:104BD0000168490726D5802D24D0402D22D0C169F7
:104BE000C94309070DD4082505622046FFF7B6FE24
:104BF000C4F8845084F878800120BDE8F087032051
:104C0000FBE7C069C04300050CD421684FF4006085
:104C100008622046FFF7A2FE2020C4F8840084F832
:104C20007880ECE72068C06935EA000004D00020F5
:104C3000B842C3D00020E0E70120F9E70148FEF7C1
:104C400003B9000024020020FEE7000010B50B4A63
:104C500000210B4822F040F90A4C084A002120604C
:104C60002432094822F038F9044A606048320021B1
:104C7000064822F031F9A06010BD0000E8260308C4
:104C8000113300084C010010FF100008F13A000831
:104C90000FB4054B10B503A9044A029801F05CFE5D
:104CA00010BC5DF814FB0000851801081802001004
:104CB0000907090E002804DB00F1E02080F8001449
:104CC000704700F00F0000F1E02080F8141D7047DD
:104CD00018B500210B464FF47A740EE0ADF80030A1
:104CE00005E000BFBDF80020521CADF80020BDF863
:104CF0000020A242F5D3491C89B28142EED318BDEF
:104D000030B583B0044600F079F89FED090B0546F5
:104D10008DED000B002221466846FBF748FD284632
:104D200000F082F89DED000B03B030BD00000000E4
:104D3000000000000000000010B52DED028BF0EE29
:104D4000408A18EE900AFBF79CFD08EE100A18EE58
:104D5000900AB7EE000A78EEC80A10F0004F4FF044
:104D60007F4010EE901A12D0B1F13F4F24BF10EEE9
:104D7000901AB0EB410F12D210EE901AB1F17C5F95
:104D80001CDD10EE901AB0EB410F17D314E0B1F117
:104D90003F4F07D910EE901AB0EB410F02D338EE17
:104DA000408A0BE010EE901AB1F17C5F06DB10EE4A
:104DB000901AB0EB410F01D338EE008A18EE101AAA
:104DC000B1F19E4F04DD18EE101AB0EB410F09D27D
:104DD00018EE101AB1F14F4F07D918EE101AB0EBB8
:104DE000410F02D3012000F01FF818EE100ABDECAD
:104DF000028BBDE81040FBF746BE0000014800688A
:104E0000704700002002002002E008C8121F08C1FD
:104E1000002AFAD170477047002001E001C1121F3B
:104E2000002AFBD17047000001490860704700006C
:104E30002002002070B504690D46A0680168A942EF
:104E40001CD88188A94219D361690A68AA4201D194
:104E5000486804E0018AAAB2806803F047F8411C60
:104E60000CD06269616801EBC00150606069056047
:104E700009682068C1F31301084470BD002070BDAB
:104E800070B504690D46A0680168A9421CD88188E4
:104E9000A94219D361690A68AA4201D1486804E0AD
:104EA000018AAAB2806803F037F8411C0CD062690D
:104EB000616801EBC00150606069056009682068A5
:104EC000C1F31301084470BD002070BD70B50569C1
:104ED0000C461646A8680168B1422BD88188B142B9
:104EE00028D369690A68B24201D1486804E0018A9E
:104EF000B2B2806802F0FAFF411C1BD06A6969688F
:104F000001EBC0015060686906600868000DA08070
:104F1000487920810879E08091F90600608191F953
:104F20000700A081688A410AA07B61F30300A07397
:104F3000012070BD002070BD70B505690C46164695
:104F4000A8680168B1422BD88188B14228D3696929
:104F50000A68B24201D1486804E0018AB2B28068AE
:104F600002F0DAFF411C1BD06A69696801EBC001DD
:104F70005060686906600868000DA080487920814B
:104F80000879E08091F90600608191F90700A0811D
:104F9000688A410AA07B61F30300A073012070BD01
:104FA000002070BD70B5044600256FF02F0608E0A4
:104FB0002068411C2160007805EB850106EB41016A
:104FC00045182068007800F0D0F80028F0D1284675
:104FD00070BD00002DE9FF5F82B00021DDE90430E3
:104FE000020DDDF840B0034318D044F61050A2F291
:104FF000FF3242431514119801281FD0A5EB0B0076
:10500000401C5FEA000A4FF000064E4FDFF838916F
:10501000B046504615D5CAF1000413E0119801249A
:105020004AA3012801D16FEA0B010298119AC0E945
:105030000031C0E9024206B000F08EB8CBF10000AA
:10504000DFE704460021404A491842EB0450CDE90D
:10505000001012E0E00707D032463B464046494682
:10506000FBF778FA8046894632463B461046194699
:10507000FBF770FA06460F466410002CEAD1DDE912
:105080000401DDE90023BAF1000F06DAFBF762FA4A
:1050900042464B46FBF75EFA05E0FBF76DFC4246E5
:1050A0004B46FBF769FC04460E460022284BFBF7F3
:1050B00011FD03D84FF0FF30014607E00022254BD9
:1050C00020463146FBF797F9FBF7C5FC102409E0B1
:1050D000002C0ADB0A220023FBF7E6F8039B3032A0
:1050E0001A55641E50EA0102F2D1641C039AC4F1FD
:1050F00011031444119A012A03D0012208430DD14F
:105100000AE0084304D000204FF0110B119072E721
:10511000A3EB0B056D1E0DE05B4504DD4FF00002B7
:1051200005F1010504E003DA4FF00002A5F10105E5
:10513000002AECD002981199C0E90231C0E900457B
:1051400079E70000000014400000F03F300000004C
:105150000000F0430000E03F30BCBDE8C09F0028E5
:1051600002D0012119F002BE70473038092801D859
:10517000012070470020704730380A2801D20120F2
:10518000704700207047000010B54421074800F028
:1051900095FE00221E21064820F08AFC054CA060E6
:1051A00002F008FB0020207010BD0000E804002081
:1051B00069780008D40000102DE9F0470E468146BA
:1051C00017461146304600F01CF94FF0FF3A002810
:1051D0007DD000223946304600F0BFF800284FF05D
:1051E000000075D1B6F90480B6F900305246A8EB3C
:1051F0000301491C0AFA81F10FFA81FAB6F906C0D7
:10520000B6F90210ACEB010C0CF1010C02FA8CF2B5
:10521000B7F802C012B2ACEB010C0FFA8CFCBCF177
:10522000000F0EDD63F30F0468F30F0501EB0C00B4
:1052300061F31F4460F31F45C9F800400120C9F81D
:105240000450B7F906107388CB1AD21A12B2002A8A
:1052500013DDB6F9063099420FDA338863F30F0491
:10526000B38861F31F4463F30F05114461F31F45D5
:1052700009EBC001401C0C604D60B7F90220B6F983
:1052800002108A4200DD1146B7F90630B6F9062051
:10529000934200DA1A463B88B6F900C0521AA3EBD3
:1052A0000C031BB212B2002B10DD002A0EDD63448A
:1052B00063F30F058B1863F31F456CF30F0409EBC1
:1052C000C00361F31F441C605D60401C01E01AE0F4
:1052D00017E0B7F9043036889F1BAAEB070636B2F1
:1052E000002E0EDD63F30F0461F31F44334463F3B8
:1052F0000F05114461F31F4509EBC001401C0C6010
:105300004D60BDE8F0875046FBE770B5B1F900305D
:10531000B2F90040A34200DC23460380B1F90250F9
:10532000B2F90240A54200DD2C464480B1F9046088
:10533000B2F90450AE4200DA35468580B1F9061064
:10534000B2F90620914200DB1146C1800120AB4238
:1053500001DC8C4200DD002070BDF8B50D4604462E
:10536000B0F90000B1F900101646884247DBB4F9E5
:105370000210B5F90220914241DBB4F90410B5F9ED
:10538000042091423BDCB4F90610B5F906209142A5
:1053900035DC96B3ADF800006088ADF80200324607
:1053A0006946284600F099F8002827D0A088ADF873
:1053B00000006088ADF8020032466946284600F0D9
:1053C0008CF800281AD02088ADF80000E088ADF8ED
:1053D000020032466946284600F07FF800280DD0CA
:1053E000A088ADF80000E088ADF8020032466946BA
:1053F000284600F072F8002800D00120F8BD0020F7
:10540000F8BDB0F90020B1F904309A4213DCB0F9CC
:105410000420B1F900309A420DDBB0F90220B1F955
:1054200006309A4207DCB0F90600B1F90210884252
:1054300001DB0120704700207047F8B50D46044697
:10544000B0F90400B1F900101646884243DBB4F904
:105450000600B5F9021088423DDBB4F90000B5F949
:105460000410884237DCB4F90210B5F906209142E5
:1054700031DC76B3ADF800006088ADF8020032464A
:105480006946284600F029F818BBA088ADF800004E
:105490006088ADF8020032466946284600F01DF8E3
:1054A000B8B92088ADF80000E088ADF802003246B7
:1054B0006946284600F011F858B9A088ADF80000F8
:1054C000E088ADF8020032466946284600F005F84B
:1054D00008B10020F8BD0120F8BD2DE9FC411446BB
:1054E0000E46B1F90020B0F9001005468A423ADBB9
:1054F000B5F90400824236DCB6F90270B5F9022033
:10550000974230DBB5F906309F422CDC002C75DD6C
:10551000401A9A1A401C521C00B212B200EBD07012
:1055200002EBD27240105210904200DB10468442CF
:1055300000DD0446ADF80010288800222044ADF8B4
:1055400004006888ADF80200688831462044ADF850
:1055500006006846FFF7C1FF40B1BDF804002044D3
:10556000ADF804003FE00020BDE8FC81E88800229F
:10557000001BADF80200E888ADF806003146684629
:10558000FFF7ABFF28B1BDF804002044ADF80400DC
:1055900011E0A8880022001BADF80000A888ADF833
:1055A000040031466846FFF798FF50B1BDF800008F
:1055B000001BADF80000BDF80200001BADF80200B2
:1055C00016E06888ADF80200688800222044ADF833
:1055D000060031466846FFF780FF70B1BDF8000055
:1055E000001BADF80000BDF806002044ADF8060031
:1055F000314668461DF0E3FDB6E7FFE70120B3E75B
:1056000010B5B1F90040B2F900309C4200DA2346EF
:105610000380B1F90240B2F902309C4200DA23461D
:105620004380B1F90440B2F904309C4200DD2346C6
:105630008380B1F90610B2F90620914200DC1146D0
:10564000C18010BDF8B5074620F0CEF90025374CD3
:105650000646009537B1F8686060384620F0F6FAE3
:10566000606802E012F010FC606000691DF0A0FCB0
:105670006068406908B11DF09BFC6068C0691DF05E
:1056800097FC6068006A1DF093FC6068016991B145
:105690001DF046FE23F084F922F09EFE6068B0F80B
:1056A0005011D9B30068017CC9071DD0C06840689B
:1056B000D0B1002713E0A0F85051F8BDC11991F8FE
:1056C000301151B900F5AC7000F04FFC616801EB8E
:1056D000C7010A6B0260496B41607F1CBFB2606802
:1056E000B0F85011B942E9D860684FF48071303099
:1056F00018F0F2FF6068202100F5987018F0ECFFB8
:105700006068A0F85051304620F068F90090606859
:105710000068436A13B122680099984718F062FE46
:1057200000F032F8BDE8F84000F002B83400002084
:1057300070B50A4D002400BFC4EBC40655F826001E
:1057400008B118F0C3FE05EB86001C2118F0C4FF59
:10575000641CE4B2042CEFD370BD0000C40500202B
:10576000084949680AE04A68824202D00A688242CF
:1057700003D10A7E42F001020A7649690029F2D17A
:1057800070470000340000107047000004210148F9
:1057900000F094BBDC0400202021014800F08EBB07
:1057A000F40400202DE9FF410446DDE90A671D00ED
:1057B0004FF0000002D1B6F5807F2BD0039001900E
:1057C0000290ADF80C100090ADF80410ADF80A206E
:1057D000ADF80E203B463246294668461DF04CFC8B
:1057E0003B463246294601A81DF046FC3B46324660
:1057F000294602A81DF040FC3B463246294603A834
:105800001DF03AFCBDF90000BDF90430984209DAF8
:10581000054608E02080491E6080A180521EE2807B
:1058200000F075B81D46BDF90820BDF90C108A427C
:1058300001DA164600E00E46B54203DA984206DB6E
:10584000184604E08A4201DA104600E00846801E4D
:105850002080BDF90030BDF90420934201DD1D46D2
:1058600000E01546BDF90800BDF90C10884201DDC5
:10587000064600E00E46B54205DD934201DD1946BD
:1058800004E0114602E0884200DD0146891CA18047
:10589000BDF90230BDF90620934201DA1D4600E051
:1058A0001546BDF90A00BDF90E10884201DA064618
:1058B00000E00E46B54205DA934201DA194604E0EB
:1058C000114602E0884200DA0146891E6180BDF976
:1058D0000230BDF90620934201DD1D4600E0154669
:1058E000BDF90A00BDF90E10884201DD064600E050
:1058F0000E46B54205DD934201DD194604E011462E
:1059000002E0884200DD0146891CE18088E703BC93
:10591000BDE8FC812DE9F04115460E460746114CC5
:1059200020F062F880462B4632463946204616F073
:105930000FFD20B10020A062E06950B110E02C21E1
:10594000204618F0C9FE4FF00040A0620020BDE8DC
:10595000F081404620F042F8E06108B90120E061A2
:105960002046F4E71805002010B51421074800F080
:10597000A5FA16F0B3FC40B1054901600549416044
:10598000054981600549C16010BDFEE700050020A2
:1059900099BC010821C00108F7C1010865BC0108D4
:1059A00070B50D4604461021284618F095FE206873
:1059B0000078012804D0022807D0042807D008E086
:1059C000A08A2880E08A688003E0E06800E0652023
:1059D000686020684268002A03D02946BDE870400C
:1059E000104770BD2DE9FE430446808A10B9E08A55
:1059F000002874D0D4F82C805FEA080010D120462B
:105A00000BF087F95FEA000869D020460EF026F80F
:105A100000220921404615F05DFB607880075ED4C6
:105A20004FF4807900274E464546002128461BF05A
:105A3000CDFA384407B2002128461BF0E5FAC11719
:105A400000EB1160001210FB06F006B228461AF0B7
:105A5000B3FA0500E9D10FB94E450CD0784201B236
:105A60004FF4803090FBF6F002B26B4604F1140064
:105A700000951DF001FBADF80450ADF8085094F806
:105A8000400000F00F000328404616D01AF0EAFB51
:105A9000064640461AF09CFA03460C200090B4F9E2
:105AA0001610324640460AF04DFCADF8080040465C
:105AB0001AF0E0FAC10713D018E01AF067FB0646A7
:105AC00040461AF0FFFA024603200090B4F9141081
:105AD000334640460AF036FCADF80400E7E736E00E
